:0C1BAF0001020408102040800302030122
:101AFE00C2AF53D0E7121C2F12160E300703120678
:021B0E007D2236
:071C280075D4A075A8882205
:10160E00E59630E104D21B801EE59630E205121BF2
:10161E00588017E59630E3051216F5800DE59630E5
:10162E00E00512189680061219ACE4F596021C2FEE
:1019AC00759D79E4F52B121C2F121B69121C2F7FCD
:0A19BC006E1218B4121C280217481E
:101B5800121C2F121B691217D57520827FCA02002A
:011B68005E1E
:1017D500E4F5F2753C7D753D7D753E01FF74812F05
:1017E500F8E4F674832FF8E4F60FBF02F0754401B0
:0117F50022D1
:10189600E59630E406754519121C28E5F354CA444A
:0E18A600C2FF12005E12157853968E021A12BF
:1015780030032EE4F53FE5E430E00353E4FEE5E70D
:1015880030E01E53E7FEE538901BB793F5E5E538E4
:10159800901BB993FFEF6006E4F5E51F80F743E77A
:0115A8000141
:0115A900221F
:1016F500121C2F43C067759E6075F3811200361268
:101705001B10EF20E504EF30E6E675F301759E60EA
:0B1715007F621218B4121C280219ACED
:091BF200FFFEFDFC78A402116362
:03000300020026D2
:03002600C2A8323B
:03000B0002000AE6
:01000A0032C3
:0300130002002EBA
:03002E00C2AA3231
:03001B0002190ABD
:10190A00C0E0C0F0C083C082C0D075D00812128671
:0B191A00D0D0D082D083D0F0D0E032DB
:0300230002004692
:03004600C2AC3217
:03002B0002004E82
:03004E00C2AD320E
:0300330002005672
:03005600C2AE3205
:030043000219257A
:10192500C0E0C0F0C083C082C0D075D018120C12C0
:0B193500D0D0D082D083D0F0D0E032C0
:03004B0002194057
:10194000C0E0C0F0C083C082C0D075D018120C12A5
:0B195000D0D0D082D083D0F0D0E032A5
:03005300020006A2
:0400060053A9FB32CD
:03005B0002195B2C
:10195B00C0E0C0F0C083C082C0D075D0181218D1BF
:0B196B00D0D0D082D083D0F0D0E0328A
:0300630002197609
:10197600C0E0C0F0C083C082C0D075D018120F8AF4
:0B198600D0D0D082D083D0F0D0E0326F
:03006B0002000E82
:04000E0053A9DF32E1
:03007300021991DE
:10199100C0E0C0F0C083C082C0D075D018120C93D3
:0B19A100D0D0D082D083D0F0D0E03254
:03007B000200166A
:0400160053A97F3239
:10128600E4F594759355121BF2D312114640267855
:10129600A4121157EF24FFFFEE34FFFEED34FFFDDD
:1012A600EC34FFFC78A4121170E4121BF2C3121185
:1012B600467002C2B1D52E11D20B752E1430030919
:0C12C600E545D3940040021545D20C22EF
:0F1B6900121A44121C2F121BFBE4F595021720D1
:101A4400E4F5A8F5A9F5DCF5DDF5B8F5B9F5DAF5B1
:061A5400DBF5DEF5DF22E8
:10172000E4F59AF59BF59C759D79759E60F5A4F599
:10173000A2F5A3F5A553A6F87580FF7590FF75B0C7
:08174000FF75A0FF43C0072262
:091BFB001215AA12176D021A5A04
:1015AA00E4FF742F2FF8E4F60FBF08F6E47897F6F5
:1015BA00FF74982FF8E4F60FBF06F6E4FF749E2F27
:1015CA00F8E4F60FBF04F6E4F522752120F524C2EB
:0115DA002CE4
:0115DB0022ED
:10176D00E4F527F526786FF618F6F539F538F551C5
:10177D00F537F53BF53FF540F541F542F543F544B9
:03178D00F54522FD
:101A5A007F12785CE4F608DFFC121BE87F107870CE
:051A6A00E4F608DFFCBA
:011A6F002254
:091BE8007F127885E4F608DFFCA9
:011BF10022D1
:071C2F00E4F59475935522C2
:101B1000121C2F121AB08F53121AB0E553B507F0EA
:011B2000FFC5
:011B210022A1
:101AB000121C2F85C054121C36E554B5C0F2E554F3
:031AC0005460FF70
:011AC3002200
:10174800C2AF121C2F439E6075F301752001301B38
:101758001375F3411217D5D207D21BD219C2187FBD
:05176800C212005E2228
:03005E008FF322FB
:1018B400C2AF75D3FC75D4F053DAF7EF600E121C87
:0D18C4002FE5DA30E3F853DAF71F80EF224A
:071C36000000000000002285
:0D003600000000000000000000000000229B
:101A7000120036000000000000000000000000001E
:061A80000000000000223E
:1037FB00020A58000075F0A5C2AF759355E59620E7
:10380B00E16230E228E520B44123B52420E521B460
:10381B004B1BE522B44916E523B4521101D5759E15
:10382B006075C07F9037FEE493645A60EF9037FB6E
:10383B00E493B402E7E4F5F0900000758107F5D04E
:10384B000237FB903FBA78207906E5F0B4A5FDE48A
:10385B0093F608A3D9F9E4F51DF51EF51F9037FF74
:10386B0093F52722114E741420C5B330C6B01470D3
:10387B00F7F59EF8741475C0DFD8FE30C6A075C07E
:10388B00BFD8FE20C59875C0FFD8FE30C590B40ACE
:10389B0002F51DB41103751E09B40602F51F7593CD
:1038AB0055D5E0D2D8FE20C50520C60221A67581CC
:1038BB002775C09F7512057D377CFE745AB1BEC249
:1038CB00C5D1C5D2C5D1C530C5F575935575812701
:1038DB00E4F5D0759E6075C07FE596540A600A7555
:1038EB00F301114ED1CF75F3C2513075F3CA7594F4
:1038FB0003E520B441FD652470FE20AFFD759355A3
:10390B00E5DB30E03B53DBFEE5EF5418701C7153E5
:10391B00BB082043EF0453EFFEE5EF20E41571E500
:10392B00516420330E53EFFB01FC20E40E43EF04F4
:10393B0053EFFE43EC0243EF0271F153EFFB01FC3B
:10394B0030E10553DBFD211330E31F53DBF753EF5E
:10395B00FB20300471612170E510B40106E50AF516
:10396B00F2600071F153EFFB01FC30E42C53DBEF01
:10397B00E5EF20E41443EF04203104E5EE700E5321
:10398B00EFFE71F153EFFB01FCD233213E71534338
:10399B00EF0453EFFE71AD218F01FCC2C67594038A
:1039AB00758127513075120575C0FF75935520C56C
:1039BB00FA30C607C2C620C5EF21C174025122B42A
:1039CB003310511DFC511DFDBD5ADDEC70DAF11B9E
:1039DB0021B3B4551679087A08511DF709DAFA792B
:1039EB00087A08E7B1C409DAFA21B3B466FD913756
:1039FB0070FE7A08D18D759355D375C0FF30C5FD18
:103A0B0020C5FD3392C6C370F430C5FDC2C6DAE4DF
:103A1B0021B375C0FF740130C5FD20C5FDA2C633AF
:103A2B0050F5C2C622E4F596F5F2F5267818F6D8CD
:103A3B00FDF5A8F5A9F5DCF5DDF5B8F5B9F5DAF581
:103A4B00DBF5DEF5DFF595F59AF59BF59CF59D1409
:103A5B00F580F590F5A0F5B0227B00E5087012D249
:103A6B0030E509B4050474014187B4095DF52241C1
:103A7B008620E759D230E509B40A09E48BEBF5103F
:103A8B0043EC0122B40943E508B4213EE50BB40233
:103A9B000474024187B403329100B4050CBE062AAC
:103AAB00BF002774047E044187B4060CBE021BBF03
:103ABB00081874067E004187B4410FB5250C913769
:103ACB0060021161B11974084187D23322D23120BF
:103ADB00E534E509B406F3E50B30E502941B60EA27
:103AEB00B4080050E523F8903FAA93FC7D3FE8040F
:103AFB0093FE7F00E50F7009C3EE950E4003E50EB4
:103B0B00FE7512416192B4A1C1D509BEE50BB40398
:103B1B00B99100B40519BE06B1BF00AE7A04E51326
:103B2B00B452A77B028512EA75EA721E1E6185B438
:103B3B00060ABE0295BF08927A066129B4418BB57D
:103B4B0025889137708461927808E5EEF9FB600562
:103B5B00A6ED08D9FB22E5106010EF7008EE600BA4
:0D3B6B00B40802D234E510B405092210346C
:103B780001227B004186B4070E7A087B0071FB7135
:103B88009E912E74074187B409E37198740941879F
:103B9800B1187A087B00EE4F600AEA6007D18DF50C
:103BA800EA0BDAF222E510B40220E509F4551130E7
:103BB800E21453F3F7759E6075C07F11615130753B
:103BC800F301D1C5013885091122B40406910D7B92
:103BD800004186B4060281D7B408EEA101E453DBA4
:103BE80067F5E953ECFD53EFFDE4F510F512F52602
:103BF800D23722AC14AD1522AC0CAD0DAE0EAF0F02
:103C0800E50AF51222E508B405FAE509B477028158
:103C18001BF513B4521E91376008E50BB4FC0C7504
:103C28000A00AC0AAD0B8C148D1522E4F51322E5BD
:103C38002764A522B45706913770F0812AB4560933
:103C4800912AEC4D70E5F51822B47727E513B4579F
:103C5800B371FB7A04790AEE4F600BE513B4570889
:103C6800E7B1C409DAF1812ED18D67600474EE42A0
:103C78001880F0B44116E50AB44B11E50BB4490CB1
:103C8800E50CB45207E50DB44102F52554DFB445FF
:103C98003DE50AB4450D630B4F630C4C630D43912E
:103CA800CCE11BB45A087CFE7D37E50BA1BEB4A558
:103CB80007B5271A7CFF81B0B4FF069137700FA1B2
:103CC8002CB4050A850B1D850C1E850D1F2222E5C7
:103CD8001354FEB4561F103708EB7908FA71FB81AC
:103CE8005FE5096420B5130DE508B40608790AEB09
:103CF800C3940250E775130022EB6014B408004027
:103D0800027408FA7908EE4F6006E7B1C409DAF6DA
:103D180022913770FBEDB45AF7ECB4FE047455A148
:103D28003CB4FF0474AAA13C543CF5F775BE007579
:103D3800BF0074E6F5B3759355751C05E512B40517
:103D480055851CB4751C0A851DB5851EB6E5B3B42A
:103D5800E61AE5F724C8502B8030E5BEB4030050BE
:103D680022048380023800B5BF20A18BB46E14E50D
:103D7800F760E724C8500C24F9500F700DE5BE24F5
:103D8800415007851FB700000000E4F5B3F5B4F50E
:103D9800B5F5B6F5B722B40602A149B441F7A14971
:103DA800EE70011F1E227D007C017438B1BE7400C4
:103DB800B1BE7C007402F5BF8DF7C110F5BFE512E6
:103DC800B44102C108BDFC0A75F73FEC44C0F5BE1A
:103DD800C112ED700FECB40300502575F73724FBC2
:103DE800F5BEC112B4FF09303016EC20E712C11934
:103DF800B43800501CB43708BCFA004003BCFA11B0
:103E0800EDB440005026F5F78CBE746EB13C75F7E2
:103E180000B1A8C1B7B4FE07ECF8E5BFF6C119B404
:103E2800FD08ECF875F700E5BFF2C119B4FFE6EC40
:103E380033745A4001C48CBEC114E583700CE5820A
:103E4800B40300504B9037FBC18AB4FF0A303140AD
:103E5800E58220E73BC186B4FC1575833FEC30E76B
:103E68000644C0F582C1895403FC2418F8C1ADB4D6
:103E78003800500AB43719E582B4FA004012903776
:103E8800FAE493C1B7B1A88C828D83E512B441AA34
:103E9800E583B440005004E493C1B7B4FF02C1B64F
:103EA800B4FE05A882E6C1B7B4FD04758300E00C32
:103EB800BC00090DBDFD011DBD00011D22D1C7D8E3
:103EC800FE759355D9F9227806E4F6D8FD7F40753A
:103ED8001205D18D29F950050ABA00010B759355C1
:0D3EE800BD40EF891B8A1A8B19E94A4B6017
:103EF50006BB3F06BAC0037527A522C2AF53F3F729
:103F0500759355758127B45AFDE4F5D0F5F3759E83
:103F15006075C07F01EA74381454FCFAB130EA7058
:103F2500F7B1AEB1AEC1CF12011001000000080318
:103F35000620100103000000010403090409022200
:103F450000010100A032090400000103010100097C
:103F550021100100012248000705810308000A0518
:103F6500010906A1018507050895087501190129AB
:103F7500089102C00600FF0901A10185051500256C
:103F8500FF1901290575089505B102C00600FF094D
:103F950001A1018506150025FF1A01002A010875F2
:103FA50008960108B102C02C1242223E044B095D5D
:103FB5000754096448414B49524100000000000084
:103FC50000000000000000000000000000000000EC
:103FD50000000000000000000000000000000000DC
:103FE50000000000000000000000000000000000CC
:0B3FF5000000000000000000000000C1
:03000000023800C3
:100A5800000000E59620E10B20E20E20E30B20E0E9
:0F0A680008800078FFE4F6D8FD7581A9020AB274
:101AC400439D18121C36539DF7C2B3121A70539DCE
:041AD400EFC2B42287
:101B2200539DF7C2B3121C36439D10121A70439D87
:021B3200082287
:10109B00E4F55AFEEF30E705439D088005539DF7B5
:1010AB00C2B3439D10EF25E0FF000000000000538A
:1010BB009DEFC2B40EBE08DC000000000000000073
:1010CB0000000000439D08000000000000439D103D
:1010DB00121C36A2B3E433FD539DEFC2B4BD010322
:0510EB007FFB227FFAEB
:0110F00022DD
:10136500E4F559439D08FE439D10E55925E0F559DF
:10137500A2B3E4334259000000000000539DEFC2C0
:10138500B40EBE08E2EF6005439D088005539DF746
:10139500C2B3121C36439D10121C36539DEFC2B4C6
:0213A500AF593E
:0113A7002223
:0413E9008F578D5835
:1013ED007559FB121AC47F6612141C601C121A70F8
:1013FD00AF5712141C6012121A707D01AF581210E3
:0E140D009BEF64FB60037559FA121B22AF5966
:0A141B00227D0112109BEF64FB22FA
:0213A8008F575D
:1013AA00E4F558121AC47F661213E06023121A7009
:1013BA00AF571213E06019121A70121AC47D017F16
:1013CA006712109BEF64FB60077F011213658F5849
:0513DA00121B22AF58B8
:0A13DF00227D0112109BEF64FB2237
:10007E001803530049004E004F0020005700450062
:10008E0041004C00540048000004030904200348BA
:10009E0000410049004C00550043004B0020004336
:1000AE00004F002E002C004C0054004400001A0398
:1000BE0055005300420020004B00450059004200FD
:1000CE004F0041005200440000594A434B2D4F4609
:1000DE004E2D55532D48312D30362D303000120116
:1000EE001001000000088A25210000010102000114
:1000FE0005010906A101050719E029E715002501EB
:10010E0075019508810295017508810195037501A8
:10011E0005081901290391029505750191019506AE
:10012E007508150026FF00050719002AFF0081003B
:10013E00C005010902A10185010901A100050919E6
:10014E000129031500250175019503810275059599
:10015E0001810105010930093109381581257F75A5
:10016E000895038106C0C00601000980A101850221
:10017E002501150075010A81000A82000A83009587
:10018E0003810695058101C0060C000901A10185B8
:10019E00032501150075010AB5000AB6000A6F00A5
:1001AE000A70000AE2000AA2000AE9000AEA0095B3
:1001BE000881020A83010A94010A86010A88010A4B
:1001CE008A010A92010AB7000ACD00950881020A37
:1001DE0021020A23020A24020A25020A26020A27FB
:1001EE00020A2A020AB10295088102C00501090C11
:1001FE00A10185091500250109C695017501810624
:10020E0075078103C00600FF0901A10185061500CF
:10021E0026FF001A01002A0F047508960F04B1027A
:10022E00C00600FF0901A1018505150026FF001972
:10023E0001290575089505B102C009023B000201AE
:10024E0000A0320904000001030101000921100180
:10025E0000012241000705810308000A090401007C
:10026E000103000000092110010001220901070508
:10027E00820308000AFF0AF7FF0FE9FF1BBBFF12FC
:10028E00D2FF1BBBFF1877FF07B7FF1BBBFF19E0A1
:10029E00FF17B3FF169CFF14D6FF1BBBFF1BBBFF44
:1002AE000DFAFF1239FF166EFF1BBBFF1BBBFF1BA8
:1002BE00BBFF1BBBFF1BBBFF0B89FF1043FF163E93
:1002CE00FF1C43FF1C49FF1C04FF0D8DFF1C4FFF3D
:1002DE001C55FF1C43FF1C43FF1BC7FF1BD2FF1CFB
:1002EE005BFF1C61FF1C43FF17F6FF150CFF1C671D
:1002FE00FF1C6DFF1C73FF1C0DFF1C79FF1C7FFF85
:10030E000066FF1C16FF1C85FF006EFF1C1FFF1CE6
:10031E008BFF1542FF1C91FF1C43FF1B78FF1C43F4
:0C032E00FF1C43FF1C43FF1790FF0076EC
:1009B60053DBEFD213AF48EF75F003A424F2F582B0
:1009C600E43402F583740193FA740293F9227549AB
:1009D6000275EB0143B91075E90643EC012275492E
:1009E60001E4F5EB43B90875E90143EC0122852AD8
:1009F60082852983E493754B00F54C7547072214CD
:100A0600F5828C83E493F5EA0F22C3E54E9408E55C
:100A16004D940022754A0874F8254EF54E74FF353C
:100A26004DF54D22F583740193FA740293F9021180
:100A360095E493424F75480F754901E42243EF044C
:100A460053EFFE22E5364535453422052AE52AAC24
:020A5600292253
:0D1B9500E549C394064003E4F549AF492239
:101858008F4AE4FDFCEFFBC3ED9B7480F86C985055
:0E1868000D742F2DF8A6ED0DBD00010C80E7CC
:01187600224F
:101A8600200302D322E52F64A16008E52F64A2603B
:051A960002D322C3226F
:101A9B00200302D322E52F64216008E52F64226026
:051AAB0002D322C3225A
:061C3D00E4F549F5B922AF
:1015DC0043C062C2C2E4F5A6F5A3F5A2F5A5F53A9F
:1015EC00F54585F328C2AF53968E121C2F43870204
:1015FC00758E5500000043F3207F1A1218B453F374
:02160C00CF22EB
:100C9300E4F552E5DF30E103E4F5DFE5DF30E26B55
:100CA30053DFFB121C2F053AAF3AEFC3954340586D
:100CB300300349E53F7008E551653760028016E46B
:100CC300FF74852FF9745C2FF8E64742520FBF1269
:100CD300F0E55260095396BFE4F53AD2AB22E4F54E
:100CE3009543F310E5A4B4FF0D75A0FFE4F580F57B
:100CF3009043B0DC8003121A121215DCE4F595431D
:0E0D0300F310121A121215DCD2AB22E4F5DF47
:010D110022BF
:100C1200C2AFE5EF54186007E5EF20E46E8066E5A9
:100C2200EE64087060AFEE121858120A43E5EF2026
:100C3200E459E4F5B953DB67F549F5485322F0F579
:100C420047F5E9F53AE52F546024E0601B24207053
:100C520037E530C3940D5033AF30EF75F003A42461
:100C620083F582E434028015E530C3940C501CAF46
:100C720030EF75F003A424AAF582E434021209C904
:100C82001211958006120A43121BBB53EFFBD2AF1F
:010C9200223F
:100AF700E53564026003020B85E5366003020B856A
:100B0700E52F247F601414602A2402706FE5A47017
:100B170004F5EA804675EA028041E5346002805EAA
:100B2700E5331460050470098021300302801C80BE
:100B37004D804BE53460028045E5332480600C141A
:100B4700600E14601B248270318000E4F5EA801C7B
:100B570030030BE5E45402C313F5EAE4800E801E6C
:100B6700300315E5E75402C313F5EAE4F5EA7549DE
:100B77000275EB021209DA22800480028000121B40
:020B8700BB228F
:100FE900E5327052E52F24FE601024027046E53187
:100FF900B401057548038032803CE53445317032CF
:10100900E5332480600F1460111460182482702065
:101019007548048015754805801030030575480624
:101029008008801230030775480A1209E4228006F5
:0A103900800480028000121BBB221D
:1012D200E53645354532703FE52F700CE531B401F6
:1012E200057548078029802FE52F64027027E534B1
:1012F20045317021E533547F601B300318E533B468
:1013020081057548088008E533B4820775480B12D9
:0B13120009E42280028000121BBB22B5
:10187700E53545364532452F7011E531C394805023
:0F1887000A8531467548011209E422121BBB2263
:1007B700E52F64806009E52F648160030208C7E5BF
:1007C70032546024E07003020853242060030208B7
:1007D700C5E52FB481030208C7E53224FE6019146A
:1007E700602824027064754B00754C1275290075DA
:1007F7002AEC7547010208BE754B00754C3B7529FD
:1008070002752A487547020208BEE53114601614BE
:10081700601F2403602714702F752900752A97120B
:1008270009F40208BE752900752A9B1209F402080B
:10083700BE752900752ABC1209F40208BE75290085
:10084700752A7E1209F4806F80768074E53470050E
:10085700E52FB480028069E533702DE53224DE6030
:1008670014047022754B00754C09752902752A5AB4
:100877007547038042754B00754C41752900752AF1
:10088700FE75470480318038E5336401702EE53208
:1008970024DE6014047023754B00754C097529021A
:1008A700752A73754705800F754B01754C097529B6
:1008B70001752A3F754706020D12800480028000E9
:0408C700121BBB2223
:1019E000E535B40110E536700CE52FB48007853B72
:0919F000EA1209D422121BBB22E9
:1017B300E53645354532452F7014E5F26010E531C5
:1017C3006005E531B401077548021209E422121BD2
:0217D300BB2237
:10169C00300326E53645347020E5356401701AE5D3
:1016AC002F64817014E53370028006E533B40107B2
:0D16BC00E4F5EA1209D4228000121BBB22C3
:1014D60030032F120A4A453245317026E52F640142
:1014E6007020E5337008754809754901800CE533AD
:1014F600B4010D75480C754901E4F5EB1209DA22C1
:061506008000121BBB2255
:100DFA00121A864060E534701DE5337019E53170CA
:100E0A0015E532B4020EE52B5407F5EA7549027569
:100E1A00EB018015803FE531B40512E532B4030DCC
:100E2A0075EA0575490275EB031209DA22E531B450
:100E3A000621E532B4031CE535B41017E536B404CF
:100E4A0012752900752AD7754B00754C1475470819
:090E5A00020D128000121BBB22E4
:10123900121A864044E5364534703CE53564017040
:1012490036E5337009E5317030853CEA8021E533B4
:1012590064017021901BB793B531077881E6F5EAEF
:10126900800D901BB8E493B531097882E6F5EA124E
:0D12790009D422800480028000121BBB22D9
:10166E00121A864025E5364534701DE53564017045
:10167E0017E5337005853EEA8008E533B40107852A
:0E168E0044EA1209D42280028000121BBB2203
:100B8900121A9B5003020C0EE534707CE536703462
:100B9900E5359408502EE53354FE7026E53145338A
:100BA900700AE532B402057548128037E531B4059B
:100BB9000FE532B4030AE535B406057548168023F6
:100BC90080438041E53664047020E5356410701A6D
:100BD900E53364017014E531B4060DE532B4030858
:100BE9007548177549048015801BE5337015E53183
:100BF900700FE532B4020A7548127549051209E702
:090C09002280028000121BBB22B4
:10104300121A9B404F120A4A7048E5337009E53182
:10105300704275480D8010E53364017033E53170DB
:101063000B434F0375480F754901801E901BB7E46E
:1010730093B53108901BAF120A37800E901BB8E46A
:1010830093B5310A901BB0120A371209E822800483
:0810930080028000121BBB2249
:10163E00121A9B4027120A4A4532701EE533700873
:10164E0075480E754901800CE533B4010B754810D1
:10165E00754901E41209E82280028000121BBB22A8
:061C430053EFFBD2AF22BB
:061C49001209BB02119517
:091C040043EC0253EFFBD2AF22C6
:100D8D00E54E454D6057120A104005120A1A8008AB
:100D9D00854E4AE4F54DF54EE54A6036E54760323D
:100DAD00E547B40819E54E454D7013FFEFC3954A5D
:100DBD005020120A5170020529120A0580EEE4FF37
:100DCD00EFC3954A500C120A5170020529120A05FB
:100DDD0080EE854AEB1209DA2012118008301109D4
:0C0DED00C211E4F5EB43EC012243EC02E0
:010DF90022D7
:061C4F001209B602119516
:061C55001209B602119510
:0B1BC70053DBEFD213E4F547021C3D96
:0B1BD20053DBEFD213E4F547021C3D8B
:061C5B001209BB02119505
:061C61001209BB021195FF
:1017F6008546F2E4F53B53E4F753E7F7E5F2600874
:101806005320F043208480065320F0432082021C9C
:011816003D94
:10150C0085313BE53B601453E4FD43E40C53E7FDAC
:10151C0043E70C5320F0432088801853E4F753E73B
:10152C00F7E5F260085320F043208480065320F046
:06153C00432082021C3D69
:061C6700E4F5A4021C3D9F
:061C6D0053EFFD021C3DD7
:061C730053ECFD021C3DD4
:091C0D0053E4FD43E40C021C3D0C
:091C160053E7FD43E70C021C3DFD
:061C790075A4FF021C3DF2
:061C7F0043E40E021C3DCF
:061C850043E70E021C3DC6
:03006600021C3D3C
:03006E00021C3D34
:091C1F0085323C85323D021C3D7A
:10154200E54F5403FFBF0314E4FF74812FF8A63262
:1015520074832FF8A6320FBF02F08017E54F30E0F8
:101562000A7881A6327883A63280087882A63278F9
:0615720084A632021C3DBC
:061C8B0085313E021C3D04
:061C9100853144021C3DF8
:0F1B7800E549B40409E52F5407F52B121C3D2253
:10179000E52FB4051BE530B47516E5344533453205
:1017A0004531700CC2AF745A75F0A512001ED2AF4D
:0317B000021C3DDB
:03007600021C3D2C
:1018D100C2AF43EF04121B95EF75F003A424CEF5BC
:0D18E10082E43402120A2A53EFFBD2AF2238
:100F8A00C2AFE5EF30E402802943EF04E5EE6027C3
:100F9A00E5EEC39409400E120A4343EC0243EF0202
:100FAA00121C3D801DAFEE12185853EFFEE5EF30CC
:100FBA00E41553DBF7800B53EFFEE5EF30E40853FB
:100FCA00DBF753EFFB8012121B95EF75F003A42495
:0F0FDA00E0F582E43402120A2A53EFFBD2AF2271
:100D1200AF36EFFEAD357C00E42DFFEC3EFE7549AB
:100D220002F54D8F4EE547600FC3E54C9FE54B9EA4
:100D32005006854B4D854C4E120A10400DE5496414
:100D4200026005E549B404020549E54E5407700402
:100D5200D2118002C211120A104005120A1A80082A
:100D6200854E4AE4F54DF54EE54A6018E5476014B4
:100D7200E4FFEFC3954A500C120A51700205291282
:0A0D82000A0580EE854AEB1209DA3B
:010D8C002244
:0C1BBB0043EC0243EF02E4F549F5B922C7
:04001E00023F00227B
:0D183800011000C12DC128C129C12AC12BFA
:101B3400D2AF43E701F53AF54522E4F5E5F5E5F5DD
:021B4400E52298
:100EC700E4FD7F7F1213E97D5A7F091213E97D0A3A
:100ED7007F0D1213E97D1B7F1D1213E97D947F4C53
:100EE7001213E97D177F4D1213E97D147F4F1213FB
:100EF700E97D077F2F1213E97D017F7F1213E97DBB
:100F0700477F271213E97D327F231213E97D487F3C
:100F17002E1213E9E4FD7F7F1213E9E4FD7F090236
:020F270013E9CC
:100E6300E47897F6FF74982FF8E4F60FBF06F6C2FE
:100E730022C2AFE4F5E2F5E2FFE4F5E20FBF06F9C3
:100E8300D2AF75E30843E401853C3DE4F53AF5450B
:100E9300789EF608F608F608F6C220C2AF75E5029A
:100EA300F5E575E602121B34E5E730E3FBE5E754AD
:100EB3000370F5C221C2AF75E503121B3E75E6044C
:030EC300121B34CB
:010EC6002209
:10067D00121AD8C2B7121C2F121BA2200305E4F5C3
:10068D002180F21211EB12131DD2B020B00CD22426
:10069D0020280BD228120E638004C228C224202DDC
:1006AD0009D22DC2AF120EC7D2AF200B030207968F
:1006BD000510E510D39401500302078BE4F510C229
:1006CD00AF7F021213A88F557F341213A88F56D205
:1006DD00AF30240302078B302C0302078B30263AF0
:1006ED00E55520E70302078B1207A4E553600302CB
:1006FD00078BD3E5546480948140037554FFC3E5A3
:10070D00546480947F5003755401202471C2AF75D9
:10071D00E501121B3E8554E5805EE55664106005CB
:10072D00E556B4200AD22978A3E64481F6800E302E
:10073D00290BC22978A3E654FEF64480F6E5553020
:10074D00E71E1207A4202436C2AF75E50178A3E693
:10075D00F5E5E553F404F5E58554E5E4F5E5801894
:10076D0078A3E6FF30E717547FF6202411C2AF754A
:10077D00E501E6F5E5121B3E75E605121B34C20BCD
:10078D00121BDD1219F9020682300C05C20C121172
:07079D009B1218EE02068218
:1007A400C2AF7F031213A88F537F041213A88F5470
:0307B400D2AF229F
:101AD800752E1475D3CE53DAF753DAFD75D4A07585
:031AE800A88822A9
:0D1BA20043DD0643A95B43A88053D0E72232
:0B1BDD00E53C6006D53D03853C3D2241
:1018EE00E551B5370BE4F537F55130090EC2092233
:0C18FE000537E537540FF53712033A2286
:1019F900539EF8E52B30E004D21A8002C21AE52B77
:091A090030E103C2C122D2C12266
:1005390000000000000000000000000000000000B2
:100549000711070B07000139010400000000000032
:10055900132B070101140000020200000000000033
:100569000E000702011A0116011D02080000000011
:100579000F00070301080107011B00000204000026
:100589000705070401150109010600000000000024
:10059900012F07060117010A0119000000000000D8
:1005A90001300707011C010B010501420000000091
:1005B900013107080118010D0111000000000000B8
:1005C900070A0709010C010E0110000000000000D4
:1005D900070C012A0112010F01360000000000007A
:1005E90000000000011300000137000000000000B6
:1005F9000000000000000138000001341000000074
:1006090011000000012C000001330000012C000042
:10061900000000000128014C02200000070D000025
:1006290000001200020100000000070E070F000081
:100639000000040000000000000000000710000096
:1006490000000000000000000000000000000000A1
:10065900203C1F3B213D223E233F35462440254176
:10066900264227432D441E3A2E45504A524B514E9D
:040679004F4D296553
:1018450001A80001A20001A30004A4000186A001D3
:02185500A900E8
:101AEB00A20AE433FFAD5722F583E493FDA20AE487
:031AFB0033FF2294
:10033A0074702537F8E6FFC39490400302052E75C2
:10034A00F002EFA42439F582E5F03405F583E4934D
:10035A00F55875F002EFA4243AF582E5F03405F574
:10036A0083E493F557E558700302052E12181730E7
:10037A00240302052E78A9E6700B78A412117C00DA
:10038A000186A0D2B1E558B40409300A04D2268005
:10039A0002C226200A0302047CE558B402030204BE
:1003AA0081E5586401703030262AE557B44C03B20F
:1003BA00C022E557B42C0FB2B178A9E66003E4F67F
:1003CA002278A9760122E557B42A09302C03C22CD7
:1003DA0022D22C2202048CE558B40303020496E5C7
:1003EA0058B405030204A1E5586407701BE55725B4
:1003FA00E030260A245AF582E434060204C9245954
:10040A00F582E434060204C9E558640E70123026F7
:10041A0005A20A0204DBA20AE433FF7DB302052B1C
:10042A00E558640F7016302609A20A33FF7DB6021A
:10043A00052BA20AE433FF7DB202052BE558B4115D
:10044A000778A3E64481F622E558B4120778A3E6B2
:10045A004482F622E5586413600302052E30260909
:10046A00A20A33FF7DB402052BA20AE433FF7D2BD7
:10047A008050E558B40206121AEB021B46E558B43E
:10048A000105121AEB803BE558B40306121AEB0277
:10049A00052BE558B40506121AEB0219C6E558648D
:1004AA00077022E55725E0245AF582E43406121A29
:1004BA00F31210F1E55725E02459F582E4340612C7
:1004CA001AF30210F1E558B40E0DA20A7DB3120513
:1004DA002F33FF7DB7804AE558B40F0DA20A7DB2CB
:1004EA0012052F33FF7DB68038E558B41002800517
:1004FA00E558B4110778A3E654FE800AE558B41209
:10050A000A78A3E654FDF64480F622E558B413149B
:10051A00A20AE433FF7D2B1210F1A20AE433FF7D15
:04052A00B4121425CE
:0B052E0022E433FF121425A20AE4228D
:1010F100EF601FE4FE74982EF8E6700974982EF8DC
:10110100A605D2222274982EF8E66D60370EBE062F
:10111100E422E4FE74982EF8E66D7024EEC3940583
:101121005017AF06EFC39405500F74992FF8E6FCE2
:1011310074982FF8A6040F80EBE4789DF6D2222252
:041141000EBE06D008
:011145002287
:10142500ED2450131313541FFE53061F0EED5407DE
:10143500901BAF93FBFCEF6010749E2EF8E65C707A
:101445001A749E2EF8E64C800F749E2EF8E65C60AA
:0B1455000A749E2EF8EBF456F6D2212C
:011460002269
:101B4600D222EF60067897E64DF622EDF4789756A6
:021B5600F62275
:1019C600EF600A789EE65D7010E64D8009789EE627
:0A19D6005D6006EDF456F6D2202203
:1011EB00E5E430E348E5E45403704230223FC22289
:1011FB00E59630E4045396EF22C2AF7897E6F5E21A
:10120B00E4F5E230080AFF75E2010FBF06F9800D25
:10121B00E4FF74982FF8E6F5E20FBF06F5D2AF7531
:0D122B00E30843E401853C3DE4F53AF54558
:011238002293
:10131D00E5E730E342E5E75403703CE545703830CE
:10132D002011C220C2AF75E502789EE6F5E575E69F
:10133D0002801A302121C221C2AF75E503789FE6E4
:10134D00F5E508E6F5E508E6F5E575E604D2AF4303
:08135D00E701E4F53AF5452231
:1016C9001080204002010804FBFDFDF77FF7FB7F36
:1016D900DFBFBFEFFEEFDFFEFBFD000100000101F0
:0C16E900010000000100010101000303EA
:0E1B8700E5269016D193225407901BAF9322AF
:10119B0020094C120F29300F028041E5277017747C
:1011AB005C2526F8A6390526E526C39412500122A4
:1011BB000527E4F52622745C2526F8E665396002DE
:1011CB00801A0526E526C3941250012212149C9214
:1011DB00083008028006200903121461121C9722A2
:101A1200E4F59CF59BF59A539D797580FF7590FFCF
:091A220075A0FF539EF8D2C22208
:101A2B00E4FEFDEE25E0FEED9016C9935F600343E7
:081A3B0006010DBD08EDAF0628
:011A43002280
:100F2900121A12E526C394125052E5269016E3933D
:100F3900FFC394045042EF6402603DEF7007121B37
:100F490087F5808018E5269016E393B40107121BF4
:100F590087F5908008121B87B4FB02C2C2121C36A7
:100F690085A039121C36E539B5A0F2AFA0121A2BAB
:100F7900EFF4F539C20F8006D20F8002D20F021AA0
:010F89001255
:10149C00E4FFFE745C2EF8E6FD5FFCED4207EC60A9
:1014AC0023C3135455FDEC54552DFC13135433FD29
:1014BC00EC54332DFCC4540FFDEC540F2DD394017C
:0914CC004002D3220EBE12CBC374
:0114D50022F4
:061C9700E4F527F526220A
:10146100E4F557F55774852557F8E6FF745C255761
:10147100F8E6FEB507028019EE6FFFAD571208CBF3
:10148100500122745C2557F8E6FF74852557F8A6AC
:0A149100070557E557C3941240CB3E
:01149B00222E
:0408CB008F588D595C
:1008CF00E4F55B745C2559F8E6F55AE4FF435B8069
:1008DF00E55B25E004F55BC20AE55A30E702D20A70
:1008EF00E55A25E0F55AE55820E70EBF0702C32267
:1008FF00E55825E0F5580209AAE55825E0F558E531
:10090F0059C394124002D3220551E551540FF551AA
:10091F00E55933333354F84FFE74702551F8A6065A
:10092F00E551121B8EFE200A15E55130E308EEF457
:10093F00786F56F68016EEF4786E56F6800EE55107
:10094F0030E304786F8002786EE64EF6E551653736
:10095F006007EF64077044C322EFC394075017E595
:10096F005B25E0F55B30D7047E0180027E00EE252B
:10097F005BF55B0F80E3745C2559F8E55B56F67405
:10098F005C2559F974852559F8E55BF45647F71539
:10099F0051E551540FF551D209C3220FEFC39408FB
:0609AF0050030208DCD336
:0109B500221F
:10181700E53730E309121B8E786F56FF8009E537ED
:10182700121B8E786E56FFEF7003C38001D3920AA6
:01183700228E
:100A7700021AFEE493A3F8E493A34003F68001F27D
:100A870008DFF48029E493A3F85407240CC8C33380
:100A9700C4540F4420C8834004F456800146F6DF4F
:100AA700E4800B0102040810204080901838E47E8F
:100AB700019360BCA3FF543F30E509541FFEE49344
:100AC700A360010ECF54C025E060A840B8E493A30B
:100AD700FAE493A3F8E493A3C8C582C8CAC583CA36
:100AE700F0A3C8C582C8CAC583CADFE9DEE780BEEE
:011857000090
:10114600EB9FF5F0EA9E42F0E99D42F0E89C45F0FF
:011156002276
:0C115700E6FC08E6FD08E6FE08E6FF22C4
:0D116300E6FB08E6F908E6FA08E6CBF822FC
:0C117000ECF608EDF608EEF608EFF622AB
:10117C00D083D082E493F608740193F6087402933A
:09118C00F608740393F674047371
:061195008A838982E473E5
:00000001FF
