:0C1A2F00010204081020408003020301A3
:10199000C2AF53D0E7121AB0121426300703120850
:0219A0000A2219
:071AA90075D4A075A8882286
:10142600E59630E104D21B801EE59630E2051219DE
:10143600D88017E59630E30512153D800DE5963008
:10144600E0051215688006121840E4F596021AB0F7
:10184000759D78E4F52B121AB01219E9121AB07FBF
:0A1850006E12172B121AA90215E000
:1019D800121AB01219E912166D7520827FCA020018
:0119E8005EA0
:10166D00E4F5F2753C7D753D7D753E01FF74782F77
:10167D00F8E4F6747A2FF8E4F60FBF02F075440122
:01168D00223A
:10156800E59630E41175451943F3207F1A12172BBD
:1015780053F3CF121AA9E5F354CA44C2FF12005E0E
:091588001213F453968E02188D23
:1013F40030032EE4F53FE5E430E00353E4FEE5E793
:1014040030E01E53E7FEE538901A3793F5E5E538EA
:10141400901A3993FFEF6006E4F5E51F80F743E780
:0114240001C6
:0114250022A4
:10153D00121AB043C067759E6075F38112003612A2
:10154D0019A2EF20E504EF30E6E675F301759E6014
:0B155D007F6212172B121AA90218401F
:03000300020026D2
:03002600C2A8323B
:03000B0002000AE6
:01000A0032C3
:0300130002002EBA
:03002E00C2AA3231
:03001B0002179E2B
:10179E00C0E0C0F0C083C082C0D075D00812170E52
:0B17AE00D0D0D082D083D0F0D0E03249
:0300230002004692
:03004600C2AC3217
:03002B0002004E82
:03004E00C2AD320E
:0300330002005672
:03005600C2AE3205
:030043000217B9E8
:1017B900C0E0C0F0C083C082C0D075D018120B50F1
:0B17C900D0D0D082D083D0F0D0E0322E
:03004B000217D4C5
:1017D400C0E0C0F0C083C082C0D075D018120B50D6
:0B17E400D0D0D082D083D0F0D0E03213
:03005300020006A2
:0400060053A9FB32CD
:03005B000217EF9A
:1017EF00C0E0C0F0C083C082C0D075D018121748B7
:0B17FF00D0D0D082D083D0F0D0E032F8
:0300630002180A76
:10180A00C0E0C0F0C083C082C0D075D018120E4D9F
:0B181A00D0D0D082D083D0F0D0E032DC
:03006B0002000E82
:04000E0053A9DF32E1
:030073000218254B
:10182500C0E0C0F0C083C082C0D075D018120EAC25
:0B183500D0D0D082D083D0F0D0E032C1
:03007B000200166A
:0400160053A97F3239
:10170E00E4F594759355D52E11D20B752E14300326
:0D171E0009E545D3940040021545D20C2288
:0F19E9001218D6121AB0121A7CE4F59502159155
:1018D600E4F5A8F5A9F5DCF5DDF5B8F5B9F5DAF521
:0618E600DBF5DEF5DF2258
:10159100E4F59AF59BF59C759D78759E60F5A4F52B
:1015A100A2F5A3F5A5539EF87580FF7590FF75B060
:0815B100FF75A0FF43C00722F3
:091A7C001214561216050218ECB2
:10145600E4FF742F2FF8E4F60FBF08F6E4788EF653
:10146600FF748F2FF8E4F60FBF06F6E4FF74952F8E
:0F147600F8E4F60FBF04F6E4F522752120F52403
:011485002244
:10160500E4F527F5267866F618F6F539F538F55137
:10161500F537F53BF53FF540F541F542F543F54422
:03162500F5452266
:1018EC007F127853E4F608DFFC121A687F107867D1
:0518FC00E4F608DFFC2A
:0119010022C3
:091A68007F12787CE4F608DFFC33
:011A71002252
:071AB000E4F5947593552243
:1019A200121AB01219428F11121942E511B507F03D
:0119B200FF35
:0119B3002211
:10194200121AB085C012121AB7E512B5C0F2E5122A
:031952005460FFDF
:01195500226F
:1015E000C2AF121AB0439E6075F301752001301B23
:1015F0001375F34112166DD207D21BD219C2187F90
:05160000C212005E2291
:03005E008FF322FB
:10172B00C2AF75D3FC75D4F053DAF7EF600E121A13
:0D173B00B0E5DA30E3F853DAF71F80EF2253
:071AB7000000000000002206
:0D003600000000000000000000000000229B
:10190200120036000000000000000000000000008D
:06191200000000000022AD
:1037FB00020996000075F0A5C2AF759355E59620AA
:10380B00E16230E228E520B44123B52420E521B460
:10381B004B1BE522B44916E523B4521101D5759E15
:10382B006075C07F9037FEE493645A60EF9037FB6E
:10383B00E493B402E7E4F5F0900000758107F5D04E
:10384B000237FB903FBA78207906E5F0B4A5FDE48A
:10385B0093F608A3D9F9E4F51DF51EF51F9037FF74
:10386B0093F52722114E741420C5B330C6B01470D3
:10387B00F7F59EF8741475C0DFD8FE30C6A075C07E
:10388B00BFD8FE20C59875C0FFD8FE30C590B40ACE
:10389B0002F51DB41103751E09B40602F51F7593CD
:1038AB0055D5E0D2D8FE20C50520C60221A67581CC
:1038BB002775C09F7512057D377CFE745AB1BEC249
:1038CB00C5D1C5D2C5D1C530C5F575935575812701
:1038DB00E4F5D0759E6075C07FE596540A600A7555
:1038EB00F301114ED1CF75F3C2513075F3CA7594F4
:1038FB0003E520B441FD652470FE20AFFD759355A3
:10390B00E5DB30E03B53DBFEE5EF5418701C7153E5
:10391B00BB082043EF0453EFFEE5EF20E41571E500
:10392B00516420330E53EFFB01FC20E40E43EF04F4
:10393B0053EFFE43EC0243EF0271F153EFFB01FC3B
:10394B0030E10553DBFD211330E31F53DBF753EF5E
:10395B00FB20300471612170E510B40106E50AF516
:10396B00F2600071F153EFFB01FC30E42C53DBEF01
:10397B00E5EF20E41443EF04203104E5EE700E5321
:10398B00EFFE71F153EFFB01FCD233213E71534338
:10399B00EF0453EFFE71AD218F01FCC2C67594038A
:1039AB00758127513075120575C0FF75935520C56C
:1039BB00FA30C607C2C620C5EF21C174025122B42A
:1039CB003310511DFC511DFDBD5ADDEC70DAF11B9E
:1039DB0021B3B4551679087A08511DF709DAFA792B
:1039EB00087A08E7B1C409DAFA21B3B466FD913756
:1039FB0070FE7A08D18D759355D375C0FF30C5FD18
:103A0B0020C5FD3392C6C370F430C5FDC2C6DAE4DF
:103A1B0021B375C0FF740130C5FD20C5FDA2C633AF
:103A2B0050F5C2C622E4F596F5F2F5267818F6D8CD
:103A3B00FDF5A8F5A9F5DCF5DDF5B8F5B9F5DAF581
:103A4B00DBF5DEF5DFF595F59AF59BF59CF59D1409
:103A5B00F580F590F5A0F5B0227B00E5087012D249
:103A6B0030E509B4050474014187B4095DF52241C1
:103A7B008620E759D230E509B40A09E48BEBF5103F
:103A8B0043EC0122B40943E508B4213EE50BB40233
:103A9B000474024187B403329100B4050CBE062AAC
:103AAB00BF002774047E044187B4060CBE021BBF03
:103ABB00081874067E004187B4410FB5250C913769
:103ACB0060021161B11974084187D23322D23120BF
:103ADB00E534E509B406F3E50B30E502941B60EA27
:103AEB00B4080050E523F8903FAA93FC7D3FE8040F
:103AFB0093FE7F00E50F7009C3EE950E4003E50EB4
:103B0B00FE7512416192B4A1C1D509BEE50BB40398
:103B1B00B99100B40519BE06B1BF00AE7A04E51326
:103B2B00B452A77B028512EA75EA721E1E6185B438
:103B3B00060ABE0295BF08927A066129B4418BB57D
:103B4B0025889137708461927808E5EEF9FB600562
:103B5B00A6ED08D9FB22E5106010EF7008EE600BA4
:0D3B6B00B40802D234E510B405092210346C
:103B780001227B004186B4070E7A087B0071FB7135
:103B88009E912E74074187B409E37198740941879F
:103B9800B1187A087B00EE4F600AEA6007D18DF50C
:103BA800EA0BDAF222E510B40220E509F4551130E7
:103BB800E21453F3F7759E6075C07F11615130753B
:103BC800F301D1C5013885091122B40406910D7B92
:103BD800004186B4060281D7B408EEA101E453DBA4
:103BE80067F5E953ECFD53EFFDE4F510F512F52602
:103BF800D23722AC14AD1522AC0CAD0DAE0EAF0F02
:103C0800E50AF51222E508B405FAE509B477028158
:103C18001BF513B4521E91376008E50BB4FC0C7504
:103C28000A00AC0AAD0B8C148D1522E4F51322E5BD
:103C38002764A522B45706913770F0812AB4560933
:103C4800912AEC4D70E5F51822B47727E513B4579F
:103C5800B371FB7A04790AEE4F600BE513B4570889
:103C6800E7B1C409DAF1812ED18D67600474EE42A0
:103C78001880F0B44116E50AB44B11E50BB4490CB1
:103C8800E50CB45207E50DB44102F52554DFB445FF
:103C98003DE50AB4450D630B4F630C4C630D43912E
:103CA800CCE11BB45A087CFE7D37E50BA1BEB4A558
:103CB80007B5271A7CFF81B0B4FF069137700FA1B2
:103CC8002CB4050A850B1D850C1E850D1F2222E5C7
:103CD8001354FEB4561F103708EB7908FA71FB81AC
:103CE8005FE5096420B5130DE508B40608790AEB09
:103CF800C3940250E775130022EB6014B408004027
:103D0800027408FA7908EE4F6006E7B1C409DAF6DA
:103D180022913770FBEDB45AF7ECB4FE047455A148
:103D28003CB4FF0474AAA13C543CF5F775BE007579
:103D3800BF0074E6F5B3759355751C05E512B40517
:103D480055851CB4751C0A851DB5851EB6E5B3B42A
:103D5800E61AE5F724C8502B8030E5BEB4030050BE
:103D680022048380023800B5BF20A18BB46E14E50D
:103D7800F760E724C8500C24F9500F700DE5BE24F5
:103D8800415007851FB700000000E4F5B3F5B4F50E
:103D9800B5F5B6F5B722B40602A149B441F7A14971
:103DA800EE70011F1E227D007C017438B1BE7400C4
:103DB800B1BE7C007402F5BF8DF7C110F5BFE512E6
:103DC800B44102C108BDFC0A75F73FEC44C0F5BE1A
:103DD800C112ED700FECB40300502575F73724FBC2
:103DE800F5BEC112B4FF09303016EC20E712C11934
:103DF800B43800501CB43708BCFA004003BCFA11B0
:103E0800EDB440005026F5F78CBE746EB13C75F7E2
:103E180000B1A8C1B7B4FE07ECF8E5BFF6C119B404
:103E2800FD08ECF875F700E5BFF2C119B4FFE6EC40
:103E380033745A4001C48CBEC114E583700CE5820A
:103E4800B40300504B9037FBC18AB4FF0A303140AD
:103E5800E58220E73BC186B4FC1575833FEC30E76B
:103E68000644C0F582C1895403FC2418F8C1ADB4D6
:103E78003800500AB43719E582B4FA004012903776
:103E8800FAE493C1B7B1A88C828D83E512B441AA34
:103E9800E583B440005004E493C1B7B4FF02C1B64F
:103EA800B4FE05A882E6C1B7B4FD04758300E00C32
:103EB800BC00090DBDFD011DBD00011D22D1C7D8E3
:103EC800FE759355D9F9227806E4F6D8FD7F40753A
:103ED8001205D18D29F950050ABA00010B759355C1
:0D3EE800BD40EF891B8A1A8B19E94A4B6017
:103EF50006BB3F06BAC0037527A522C2AF53F3F729
:103F0500759355758127B45AFDE4F5D0F5F3759E83
:103F15006075C07F01EA74381454FCFAB130EA7058
:103F2500F7B1AEB1AEC1CF12011001000000080318
:103F35000620100103000000010403090409022200
:103F450000010100A032090400000103010100097C
:103F550021100100012248000705810308000A0518
:103F6500010906A1018507050895087501190129AB
:103F7500089102C00600FF0901A10185051500256C
:103F8500FF1901290575089505B102C00600FF094D
:103F950001A1018506150025FF1A01002A010875F2
:103FA50008960108B102C02C1242223E044B095D5D
:103FB5000754096448414B49524100000000000084
:103FC50000000000000000000000000000000000EC
:103FD50000000000000000000000000000000000DC
:103FE50000000000000000000000000000000000CC
:0B3FF5000000000000000000000000C1
:03000000023800C3
:10099600000000E59620E10B20E20E20E30B20E0AC
:0F09A60008800078FFE4F6D8FD75819B0209F008
:10195600439D18121AB7539DF7C2B3121902539D2D
:04196600EFC2B422F6
:1019B400539DF7C2B3121AB7439D10121902439DE7
:0219C4000822F7
:100FB800E4F516FEEF30E705439D088005539DF7DD
:100FC800C2B3439D10EF25E0FF000000000000536E
:100FD8009DEFC2B40EBE08DC000000000000000057
:100FE80000000000439D08000000000000439D1021
:100FF800121AB7A2B3E433FD539DEFC2B4BD010387
:051008007FFB227FFACE
:01100D0022C0
:1011E100E4F515439D08FE439D10E51525E0F51531
:1011F100A2B3E4334215000000000000539DEFC28A
:10120100B40EBE08E2EF6005439D088005539DF7CB
:10121100C2B3121AB7439D10121AB7539DEFC2B44D
:02122100AF1507
:0112230022A8
:041265008F138D1442
:101269007515FB1219567F66121298601C12190225
:10127900AF1312129860121219027D01AF14120FE6
:0E128900B8EF64FB60037515FA1219B4AF15C7
:0A129700227D01120FB8EF64FB2264
:021224008F1326
:10122600E4F5141219567F6612125C602312190235
:10123600AF1312125C60191219021219567D017F42
:1012460067120FB8EF64FB60077F011211E18F147C
:051256001219B4AF14F1
:0A125B00227D01120FB8EF64FB22A0
:10007E001803530049004E004F0020005700450062
:10008E0041004C00540048000004030904200348BA
:10009E0000410049004C00550043004B0020004336
:1000AE00004F002E002C004C0054004400001A0398
:1000BE0055005300420020004B00450059004200FD
:1000CE004F0041005200440000594A434B2D4F4609
:1000DE004E2D55532D48312D30322D30300012011A
:1000EE001001000000088A25210000010102000114
:1000FE0005010906A101050719E029E715002501EB
:10010E0075019508810295017508810195037501A8
:10011E0005081901290391029505750191019506AE
:10012E007508150026FF00050719002AFF0081003B
:10013E00C005010902A10185010901A100050919E6
:10014E000129031500250175019503810275059599
:10015E0001810105010930093109381581257F75A5
:10016E000895038106C0C00601000980A101850221
:10017E002501150075010A81000A82000A83009587
:10018E0003810695058101C0060C000901A10185B8
:10019E00032501150075010AB5000AB6000A6F00A5
:1001AE000A70000AE2000AA2000AE9000AEA0095B3
:1001BE000881020A83010A94010A86010A88010A4B
:1001CE008A010A92010AB7000ACD00950881020A37
:1001DE0021020A23020A24020A25020A26020A27FB
:1001EE00020A2A020AB10295088102C00501090C11
:1001FE00A10185091500250109C695017501810624
:10020E0075078103C00600FF0901A10185061500CF
:10021E0026FF001A01002A0F047508960F04B1027A
:10022E00C00600FF0901A1018505150026FF001972
:10023E0001290575089505B102C009023B000201AE
:10024E0000A0320904000001030101000921100180
:10025E0000012241000705810308000A090401007C
:10026E000103000000092110010001220901070508
:10027E00820308000AFF0A35FF0F06FF1A3BFF1123
:10028E004EFF1A3BFF16EFFF060BFF1A3BFF1874CB
:10029E00FF164BFF14E4FF1352FF1A3BFF1A3BFFEE
:1002AE000CB9FF1101FF14B6FF1A3BFF1A3BFF1AE0
:1002BE003BFF1A3BFF1A3BFF0AC7FF0F60FF148676
:1002CE00FF1AC4FF1ACAFF1A85FF0C4CFF1AD0FF83
:1002DE001AD6FF1AC4FF1AC4FF1A47FF1A52FF1A82
:1002EE00DCFF1AE2FF1AC4FF168EFF1388FF1AE80E
:1002FE00FF1AEEFF1AF4FF1A8EFF1AFAFF1B00FF09
:10030E000066FF1A97FF1B06FF006EFF1AA0FF1B69
:10031E000CFF13BEFF1B12FF1AC4FF19F8FF1AC4FD
:0C032E00FF1AC4FF1AC4FF1628FF007657
:1008F40053DBEFD213AF48EF75F003A424F2F58273
:10090400E43402F583740193FA740293F92275496D
:100914000275EB0143B91075E90643EC01227549F0
:1009240001E4F5EB43B90875E90143EC0122852A9A
:1009340082852983E493754B00F54C75470722148F
:10094400F5828C83E493F5EA0F22C3E54E9408E51F
:100954004D940022754A0874F8254EF54E74FF35FF
:100964004DF54D22F583740193FA740293F9021B39
:100974001EE493424F75480F754901E42243EF0486
:1009840053EFFE22E5364535453422052AE52AACE7
:02099400292216
:0D1A1500E549C394064003E4F549AF4922BA
:1016D0008F4AE4FDFCEFFBC3ED9B7480F86C9850DF
:0E16E0000D742F2DF8A6ED0DBD00010C80E756
:0116EE0022D9
:10191800200302D322E52F64A16008E52F64A260AA
:0519280002D322C322DE
:10192D00200302D322E52F64216008E52F64226095
:05193D0002D322C322C9
:061ABE00E4F549F5B92230
:1015B90043C063C2C2E4F59EF5A3F5A2F5A5F53AC9
:1015C900F54585F328C2AF53968E121AB0438702A8
:0715D900758E550000002291
:100EAC00E4F510E5DF30E103E4F5DFE5DF30E246A1
:100EBC0053DFFB121AB0053AAF3AEFC395434033F8
:100ECC00300324E53F7002F53FE4F59543F310E55C
:100EDC00A4B4FF0D75A0FFE4F580F59043B0DC8061
:100EEC000312188D1215B9E4F59543F31012188DF1
:090EFC001215B9D2AB22E4F5DFB6
:010F050022C9
:100B5000C2AFE5EF54186007E5EF20E46E8066E56C
:100B6000EE64087060AFEE1216D0120981E5EF2036
:100B7000E459E4F5B953DB67F549F5485322F0F53C
:100B800047F5E9F53AE52F546024E0601B24207016
:100B900037E530C3940D5033AF30EF75F003A42424
:100BA00083F582E434028015E530C3940C501CAF09
:100BB00030EF75F003A424AAF582E4340212090789
:100BC000121B1E8006120981121A3B53EFFBD2AF93
:010BD0002202
:100A3500E53564026003020AC3E5366003020AC3B2
:100A4500E52F247F601414602A2402706FE5A470DA
:100A550004F5EA804675EA028041E5346002805E6D
:100A6500E5331460050470098021300302801C8081
:100A75004D804BE53460028045E5332480600C14DD
:100A8500600E14601B248270318000E4F5EA801C3E
:100A950030030BE5E45402C313F5EAE4800E801E2F
:100AA500300315E5E75402C313F5EAE4F5EA7549A1
:100AB5000275EB0212091822800480028000121AC6
:020AC5003B22D2
:100F0600E5327052E52F24FE601024027046E5316A
:100F1600B401057548038032803CE53445317032B2
:100F2600E5332480600F1460111460182482702049
:100F36007548048015754805801030030575480608
:100F46008008801230030775480A1209222280069B
:0A0F5600800480028000121A3B2282
:10114E00E53645354532703FE52F700CE531B4017B
:10115E00057548078029802FE52F64027027E53436
:10116E0045317021E533547F601B300318E533B4ED
:10117E0081057548088008E533B4820775480B125F
:0B118E0009222280028000121A3B227E
:1016EF00E53545364532452F7011E531C3948050AD
:0F16FF000A85314675480112092222121A3B2230
:10060B00E52F64806009E52F6481600302071BE519
:10061B0032546024E070030206A724206003020713
:10062B0019E52FB4810302071BE53224FE60191470
:10063B00602824027064754B00754C127529007587
:10064B002AEC754701020712754B00754C3B752957
:10065B0002752A48754702020712E5311460161419
:10066B00601F2403602714702F752900752A9712B9
:10067B000932020712752900752A9B1209320207EB
:10068B0012752900752ABC1209320207127529004E
:10069B00752A7E120932806F80768074E53470057E
:1006AB00E52FB480028069E533702DE53224DE60DE
:1006BB0014047022754B00754C09752902752A5A62
:1006CB007547038042754B00754C41752900752A9F
:1006DB00FE75470480318038E5336401702EE532B6
:1006EB0024DE6014047023754B00754C09752902C8
:1006FB00752A73754705800F754B01754C09752964
:10070B0001752A3F754706020BD1800480028000D9
:04071B00121A3B2251
:10187400E535B40110E536700CE52FB48007853BDF
:09188400EA12091222121A3B2299
:10164B00E53645354532452F7014E5F26010E5312E
:10165B006005E531B4010775480212092222121AFE
:02166B003B2220
:1014E400300326E53645347020E5356401701AE58D
:1014F4002F64817014E53370028006E533B401076C
:0D150400E4F5EA120912228000121A3B22BF
:1013520030032F120988453245317026E52F64018A
:101362007020E5337008754809754901800CE53332
:10137200B4010D75480C754901E4F5EB1209182208
:061382008000121A3B225C
:100CB9001219184060E534701DE5337019E531707B
:100CC90015E532B4020EE52B5407F5EA75490275AC
:100CD900EB018015803FE531B40512E532B4030D0F
:100CE90075EA0575490275EB0312091822E531B455
:100CF9000621E532B4031CE535B41017E536B40412
:100D090012752900752AD7754B00754C147547085B
:090D1900020BD18000121A3B22EA
:101101001219184044E5364534703CE535640170E8
:1011110036E5337009E5317030853CEA8021E533ED
:1011210064017021901A3793B531077878E6F5EAB2
:10113100800D901A38E493B531097879E6F5EA1211
:0D114100091222800480028000121A3B2255
:1014B6001219184025E5364534701DE5356401706E
:1014C60017E5337005853EEA8008E533B4010785E4
:0E14D60044EA1209122280028000121A3B2200
:100AC70012192D5003020B4CE534707CE536703457
:100AD700E5359408502EE53354FE7026E53145334D
:100AE700700AE532B402057548128037E531B4055E
:100AF7000FE532B4030AE535B406057548168023B9
:100B070080438041E53664047020E5356410701A2F
:100B1700E53364017014E531B4060DE532B403081A
:100B27007548177549048015801BE5337015E53145
:100B3700700FE532B4020A75481275490512092586
:090B47002280028000121A3B22F8
:100F600012192D404F1209887048E5337009E53198
:100F7000704275480D8010E53364017033E53170BF
:100F80000B434F0375480F754901801E901A37E4D3
:100F900093B53108901A2F120975800E901A38E413
:100FA00093B5310A901A301209751209262280046D
:080FB00080028000121A3B22AE
:1014860012192D40271209884532701EE53370085F
:1014960075480E754901800CE533B4010B7548108B
:1014A600754901E41209262280028000121A3B22A5
:061AC40053EFFBD2AF223C
:061ACA001208F9021B1EC8
:091A850043EC0253EFFBD2AF2247
:100C4C00E54E454D605712094E4005120958800873
:100C5C00854E4AE4F54DF54EE54A6036E54760327F
:100C6C00E547B40819E54E454D7013FFEFC3954A9F
:100C7C00502012098F7002052912094380EEE4FFFF
:100C8C00EFC3954A500C12098F70020529120943C3
:100C9C0080EE854AEB1209182012118008301109D8
:0C0CAC00C211E4F5EB43EC012243EC0222
:010CB8002219
:061AD0001208F4021B1EC7
:061AD6001208F4021B1EC1
:0B1A470053DBEFD213E4F547021ABE98
:0B1A520053DBEFD213E4F547021ABE8D
:061ADC001208F9021B1EB6
:061AE2001208F9021B1EB0
:10168E008546F2E4F53B53E4F753E7F7E5F26008DD
:10169E005320F043208480065320F0432082021A08
:0116AE00BE7D
:1013880085313BE53B601453E4FD43E40C53E7FD32
:1013980043E70C5320F0432088801853E4F753E7C1
:1013A800F7E5F260085320F043208480065320F0CC
:0613B800432082021ABE70
:061AE800E4F5A4021ABEA1
:061AEE0053EFFD021ABED9
:061AF40053ECFD021ABED6
:091A8E0053E4FD43E40C021ABE0E
:091A970053E7FD43E70C021ABEFF
:061AFA0075A4FF021ABEF4
:061B000043E40E021ABED0
:061B060043E70E021ABEC7
:03006600021ABEBD
:03006E00021ABEB5
:091AA00085323C85323D021ABE7C
:1013BE00E54F5403FFBF0314E4FF74782FF8A632F1
:1013CE00747A2FF8A6320FBF02F08017E54F30E087
:1013DE000A7878A632787AA63280087879A632789A
:0613EE007BA632021ABECC
:061B0C0085313E021ABE05
:061B1200853144021ABEF9
:0F19F800E549B40409E52F5407F52B121ABE2256
:10162800E52FB4051BE530B47516E534453345326E
:101638004531700CC2AF745A75F0A512001ED2AFB6
:03164800021ABEC5
:03007600021ABEAD
:10174800C2AF43EF04121A15EF75F003A424CEF5C7
:0D17580082E4340212096853EFFBD2AF2285
:100E4D00C2AFE5EF30E402802943EF04E5EE602701
:100E5D00E5EEC39409400E12098143EC0243EF0203
:100E6D00121ABE801DAFEE1216D053EFFEE5EF3015
:100E7D00E41553DBF7800B53EFFEE5EF30E4085339
:100E8D00DBF753EFFB8012121A15EF75F003A42454
:0F0E9D00E0F582E4340212096853EFFBD2AF2272
:100BD100AF36EFFEAD357C00E42DFFEC3EFE7549EE
:100BE10002F54D8F4EE547600FC3E54C9FE54B9EE7
:100BF1005006854B4D854C4E12094E400DE549641A
:100C0100026005E549B404020549E54E5407700444
:100C1100D2118002C21112094E40051209588008F2
:100C2100854E4AE4F54DF54EE54A6018E5476014F6
:100C3100E4FFEFC3954A500C12098F700205291287
:0A0C4100094380EE854AEB12091802
:010C4B002286
:0C1A3B0043EC0243EF02E4F549F5B92248
:04001E00023F00227B
:0D18BF00015200C12CC128C129C12AC12B32
:0A1A7200D2AF43E701F53AF5452233
:100D8A00E4FD7F7F1212657D5A7F091212657D0A82
:100D9A007F0D1212657D1B7F1D1212657D947F4C9B
:100DAA001212657D177F4D1212657D147F4F121244
:100DBA00657D077F2F1212657D017F7F1212657D87
:100DCA00477F271212657D327F231212657D487F85
:100DDA002E121265E4FD7F7F121265E4FD7F09027F
:020DEA00126590
:100D2200E4788EF6FF748F2FF8E4F60FBF06F6C252
:100D320022C2AFE4F5E2F5E2FFE4F5E20FBF06F905
:100D4200D2AF75E30843E401853C3DE4F53AF5454D
:100D52007895F608F608F608F6C220C2AF75E502E5
:100D6200F5E575E602121A72E5E730E3FBE5E754B2
:100D72000370F5C221C2AF75E503E4F5E5F5E5F5CB
:070D8200E575E604121A7288
:010D89002247
:10080A0012196AC2B7121AB0121A22200305E4F5A5
:10081A002180F21210B3121199D2B020B00CD22456
:10082A0020280BD228120D228004C228C224202C90
:10083A0009D22CC2AF120D8AD2AF200B030208E6EE
:10084A000552E552D3940150030208DBE4F552C283
:10085A00AF7F021212248F127F34121224D2AFEF0A
:10086A0064106003BF200AD229789AE64481F68090
:10087A000E30290BC229789AE654FEF64480F6E532
:10088A001230E72BC2AF7F031212248F117F04129A
:10089A001224D2AF20243AC2AF75E501789AE6F560
:1008AA00E5EFF404F5E5E511F404F5E5E4801A78DA
:1008BA009AE6FF30E71B547FF6202415C2AF75E590
:1008CA0001E6F5E5E4F5E5F5E5F5E575E605121A5F
:1008DA0072C20B121A5D12176502080F300C05C29C
:0A08EA000C12106312178202080FAF
:10196A00752E1475D3CE53DAF753DAFD75D4A075F4
:03197A00A8882218
:0D1A220043DD0643A95B43A88053D0E722B3
:0B1A5D00E53C6006D53D03853C3D22C2
:10178200E551B5370BE4F537F55130090EC20922A0
:0C1792000537E537540FF53712033A22F3
:10176500539EF8E52B30E006C2C0D21A8004D2C0E1
:0D177500C21AE52B30E103C2C122D2C1220D
:1004C9000000000000000000000000000000000023
:1004D9000129012B07000139010400000000000077
:1004E90001350701011400000202000000000000AC
:1004F90003B40702011A0116011D020800000000D9
:100509000EB7070301080107011B000002040000E0
:100519000FB60704011501090106000000000000DB
:10052900070507060117010A01190000000000006C
:10053900012F0707011C010B010501420000000002
:10054900013007080118010D011100000000000029
:1005590001310709010C010E011000000000000023
:10056900070A070B0112010F013600000000000005
:10057900070C014C011300000137000000000000C6
:1005890000000000000001380000013310000000E5
:1005990011000000012C000001340000012C0000B2
:1005A900000000000128012A02200000070D0000B8
:1005B90000001200020100000000070E070F0000F2
:1005C9000000040000000000000000000710000007
:1005D9000000000000000000000000000000000012
:1005E9001F3B1E3A203C213D223E4649233F2440E1
:1005F900254126422D4427432E45504A524B514E00
:020609004F4D53
:0918CC00019B00019900019A0042
:10197D00A20AE433FFAD1322F583E493FDA20AE43A
:03198D0033FF2203
:10033A0074672537F8E6FFC3949040030204BA7540
:10034A00F002EFA424C9F582E5F03404F583E493BE
:10035A00F51475F002EFA424CAF582E5F03404F529
:10036A0083E493F513E51470030204BA1216AF304E
:10037A0024030204BAE514B40409300A04D226801C
:10038A0002C226200A0302042AE514B40203020464
:10039A002FE514B4010E302608E513B42903B2B1CF
:1003AA002202043AE514B40302803BE514B40503BF
:1003BA0002044EE5146407701BE51325E030260A93
:1003CA0024EAF582E4340502047624E9F582E43469
:1003DA0005020476E514640E7012302609A20A3367
:1003EA00FF7DB302049612197D020496E514640F88
:1003FA007012302609A20A33FF7DB202049612193E
:10040A007D020496E514B41107789AE64481F6222F
:10041A00E514641260030204BA789AE64482F6226A
:10042A00E514B4020612197D0219C6E514B40105D1
:10043A0012197D803AE514B4030512197D804DE541
:10044A0014B4050612197D02185AE51464077022BD
:10045A00E51325E024EAF582E43405121985121021
:10046A000EE51325E024E9F582E434051219850224
:10047A00100EE514B40E09A20A7DB31204BB800C57
:10048A00E514B40F0AA20A7DB21204BB0212A1E556
:10049A0014B410028005E514B41107789AE654FEE4
:1004AA00800AE514B41209789AE654FDF64480F6F7
:0F04BA0022E433FF1212A1A20AE433FFAD132292
:10100E00EF601FE4FE748F2EF8E67009748F2EF8D1
:10101E00A605D22222748F2EF8E66D60370EBE061C
:10102E00E422E4FE748F2EF8E66D7024EEC3940570
:10103E005017AF06EFC39405500F74902FF8E6FCCF
:10104E00748F2FF8A6040F80EBE47894F6D2222248
:04105E000EBE06D0EC
:01106200226B
:1012A100ED2450131313541FFE53061F0EED540764
:1012B100901A2F93FBFCEF601074952EF8E65C708A
:1012C1001A74952EF8E64C800F74952EF8E65C6042
:0B12D1000A74952EF8EBF456F6D221BB
:0112DC0022EF
:1019C600D222EF6006788EE64DF622EDF4788E563A
:0219D600F622F7
:10185A00EF600A7895E65D7010E64D80097895E6A6
:0A186A005D6006EDF456F6D2202270
:1010B300E5E430E348E5E45403704230223FC222C2
:1010C300E59630E4045396EF22C2AF788EE6F5E25C
:1010D300E4F5E230080AFF75E2010FBF06F9800D5F
:1010E300E4FF748F2FF8E6F5E20FBF06F5D2AF7574
:0D10F300E30843E401853C3DE4F53AF54592
:0111000022CC
:10119900E5E730E342E5E75403703CE54570383054
:1011A9002011C220C2AF75E5027895E6F5E575E62E
:1011B90002801A302121C221C2AF75E5037896E673
:1011C900F5E508E6F5E508E6F5E575E604D2AF4389
:0811D900E701E4F53AF54522B7
:101511001080204002010804FBFDFDF77FF7FB7FEF
:10152100DFBFBFEFFEEFDFFEFBFD000100000101A9
:0C153100010000000100010101000303A3
:0E1A0700E52690151993225407901A2F93226A
:1010630020094C120DEC300F028041E527701774F4
:10107300532526F8A6390526E526C39412500122E6
:101083000527E4F5262274532526F8E66539600220
:10109300801A0526E526C3941250012212131892D2
:1010A3000830080280062009031212DD121B1822E1
:10188D00E4F59CF59BF59A539D787580FF7590FF57
:09189D0075A0FF539EF8D2C2228F
:1018A600E4FEFDEE25E0FEED901511935F60034327
:0818B60006010DBD08EDAF06AF
:0118BE002207
:100DEC0012188DE526C394125052E52690152B93BC
:100DFC00FFC394045042EF6402603DEF7007121A77
:100E0C0007F5808018E52690152B93B40107121A6C
:100E1C0007F5908008121A07B4FB02C2C2121AB767
:100E2C0085A039121AB7E539B5A0F2AFA01218A6F1
:100E3C00EFF4F539C20F8006D20F8002D20F0218E0
:010E4C008D18
:10131800E4FFFE74532EF8E6FD5FFCED4207EC6037
:1013280023C3135455FDEC54552DFC13135433FDAE
:10133800EC54332DFCC4540FFDEC540F2DD3940101
:091348004002D3220EBE12CBC3F9
:011351002279
:061B1800E4F527F526228A
:1012DD00E4F513F513747C2513F8E6FF7453251309
:1012ED00F8E6FEB507028019EE6FFFAD1312071F6A
:1012FD0050012274532513F8E6FF747C2513F8A6CC
:0A130D00070513E513C3941240CB4B
:0113170022B3
:04071F008F148D1591
:10072300E4F51774532515F8E6F516E4FF4317802F
:10073300E51725E004F517C20AE51630E702D20AE9
:10074300E51625E0F516E51420E70EBF0702C322E0
:10075300E51425E0F5140207FEE51425E0F514E59C
:1007630015C394124002D3220551E551540FF5519C
:10077300E51533333354F84FFE74672551F8A60655
:10078300E551121A0EFE200A15E55130E308EEF486
:10079300786656F68016EEF4786556F6800EE551C7
:1007A30030E304786680027865E64EF6E5516537F6
:1007B3006007EF64077044C322EFC394075017E543
:1007C3001725E0F51730D7047E0180027E00EE2561
:1007D30017F5170F80E374532515F8E51756F674CC
:1007E300532515F9747C2515F8E517F45647F715C5
:1007F30051E551540FF551D209C3220FEFC39408A9
:060803005003020730D390
:0108090022CC
:1016AF00E53730E309121A0E786656FF8009E537E1
:1016BF00121A0E786556FFEF7003C38001D3920A9A
:0116CF0022F8
:1009B500021990E493A3F8E493A34003F68001F2AF
:1009C50008DFF48029E493A3F85407240CC8C33343
:1009D500C4540F4420C8834004F456800146F6DF12
:1009E500E4800B01020408102040809018BFE47ECB
:1009F500019360BCA3FF543F30E509541FFEE49307
:100A0500A360010ECF54C025E060A840B8E493A3CD
:100A1500FAE493A3F8E493A3C8C582C8CAC583CAF8
:100A2500F0A3C8C582C8CAC583CADFE9DEE780BEB0
:0118D5000012
:061B1E008A838982E47352
:00000001FF
